:020000000C945E
:1000020059000C9400000C9400000C9400000C9415
:1000120000000C9400000C9400000C9400000C945E
:1000220000000C9400000C9400000C9400000C944E
:1000320000000C9400000C9400000C9400000C943E
:1000420000000C9400000C9400000C9400000C942E
:1000520000000C9400000C9400000C9400000C941E
:1000620000000C9400000C9400000C9400000C940E
:1000720000000C9400000C9400000C9400000C94FE
:1000820000000C9400000C9400000000000080C0EE
:1000920001002D4E414E00494E460000030005006E
:1000A2008C0002000005900001000405920000008F
:1000B200F894EE27ECBBF1E0F5BFE5BFE0936C00EE
:1000C2008DE0A2E0BB27ED938A95E9F780E090E10D
:1000D200A0E0B1E0ED930197E9F7EEE9F0E0859158
:1000E2009591009761F0A591B59105901590BF018A
:1000F200F00105900D920197E1F7FB01F0CF8BBF64
:10010200EFEFEDBFE0E1EEBFC0E0D5E00C9496006A
:10011200AA93E881E7B98BE18A95F1F7369A349B85
:10012200FECF349AE4B1F5B1D3C0E0E8E8B9E0E03B
:10013200E7B9E3E8E6B9E0E0E0BDE7BBEFEFE8BB33
:10014200A0E199D066D08F9A979AB29B22C055248B
:10015200E3E0E515F0F0A52DDBDF3F01E52DA5E09D
:10016200EA9FF001BF01DF01EFE0F0E00E94CD0164
:10017200EA93DB01EFE0F0E00E94C801AE2F3CD031
:100182007A926A92D4010E946B01D40163D0539493
:10019200DFCFDBCFFFCFAA93E881E07111F0DB9ACA
:1001A20001C0DB98E881E07211F0DC9A01C0DC98B2
:1001B200E881E07411F0DD9A01C0DD98E881E07811
:1001C20011F0DE9A01C0DE988DE08A95F1F7DA9A95
:1001D2008DE08A95F1F7DA988DE08A95F1F778C08B
:1001E200AA93A881D8DFE881E295E883A881D3DFCA
:1001F20085E88A95F1F76CC0AA93E881F0E0E050B7
:10020200FB4FE081A981AE0FEBDF4980B8802296D7
:100212000895A2E00E949901ACE0E2DFA1E00E9411
:100222009901E0E0BE2E4E2E0895AA93A881AA302D
:1002320011F04A1448F0E0E0EA93B394AB2DDCDF0E
:10024200A881AA3009F444C04394D89AA881C8DF8F
:10025200D8983EC0BA93AA931A93A981BA81ED9114
:10026200A983BA831E2FE03019F0A12FDEDFF5CF6C
:10027200188123960895AA93D39AD49AD59AD69A96
:10028200D29AD09AD19ADA98D898D998A880E88147
:10029200E058E0930205E881E054E0930305A4E10D
:1002A200B0E00E94A7010E949F010E949F010E944C
:1002B2009F01A0E270DF88EC90E00197F1F7A8E2DD
:1002C2008FDFA4E08DDFA5E88BDFA6E089DFA1DF69
:1002D20021960895BA93AA93A991B991E991F991B6
:1002E20030962AF4E095F09531966DE26D93E8949C
:1002F20080E197E20DD088EE93E00AD084E6992758
:1003020007D08AE005D06E2F10D066276C9308952F
:100312006627E817F90720F06395E81BF90BC9F780
:10032200662311F416F008956894605D6D93089544
:100332000E94F100A3E0B0E00C94A701A0E30E94A8
:10034200CC0088EC90E00197F1F70895109639F00F
:1003520080ED97E00197F1F7A8951197C9F70895F5
:10036200F195E195F04008950024112490E1AA0F3F
:10037200BB1F001C111C0E1A1F0A18F40E0E1F1EA2
:1003820001C0A1609A9599F7FD01D001089512D09C
:10039200EBDF0EF4E5DF0895E894B7FF04C0A09503
:1003A200B09511966894F7FDDBDFDEDFFD010EF4F8
:1003B200D7DF0895E894F7FF02C0D2DF6894B7FF51
:1003C20006C0A095B095119600F8039400FA08951E
:00000001FF
