:020000000C945E
:100002005C000C9400000C9400000C9400000C9412
:1000120000000C9400000C9400000C9400000C945E
:1000220000000C9400000C9400000C9400000C944E
:1000320000000C9400000C9400000C9400000C943E
:1000420000000C9400000C9400000C9400000C942E
:1000520000000C9400000C9400000C9400000C941E
:1000620000000C9400000C9400000C9400000C940E
:1000720000000C9400000C9400000C9400000C94FE
:1000820000000C9400000C9400000000300080C0BE
:1000920001002D4E414E00494E4600000200040070
:1000A2008C00020000058E00020002059000010093
:1000B200060592000000F894EE27ECBBF1E0F5BFD4
:1000C200E5BFE0936C008DE0A2E0BB27ED938A953B
:1000D200E9F780E090E1A0E0B1E0ED930197E9F764
:1000E200EEE9F0E085919591009761F0A591B591C7
:1000F20005901590BF01F00105900D920197E1F76F
:10010200FB01F0CF8BBFEFEFEDBFE0E1EEBFC0E050
:10011200D5E00C948C00E0E0E7BBEFEFE8BB8F9AF0
:10012200979A8D9AA0E1A2D00E949401A0E0B5E036
:100132008CD0B2990DC0B399FECFAAEFB0E00E9465
:10014200AF01F20131962F010E949B01D3017DD0B4
:10015200B39913C0B299FECFAAEFB0E00E94AF01EB
:10016200F20131972F0100244014500414F4442466
:1001720055240E949B01D30168D000240414050475
:1001820014F4959A01C09598D4CFFFCFAA93E88131
:10019200E07111F0DB9A01C0DB98E881E07211F0A6
:1001A200DC9A01C0DC98E881E07411F0DD9A01C0AC
:1001B200DD98E881E07811F0DE9A01C0DE988DE0EA
:1001C2008A95F1F7DA9A8DE08A95F1F7DA988DE05F
:1001D2008A95F1F778C0AA93A881D8DFE881E295E1
:1001E200E883A881D3DF85E88A95F1F76CC0AA93EA
:1001F200E881F0E0EE5FFA4FE081A981AE0FEBDF1C
:100202009980888022960895A2E00E94A101ACE024
:10021200E2DFA1E00E94A101E0E08E2E9E2E089571
:10022200AA93A881AA3011F09B1448F0E0E0EA9367
:100232008394A82DDCDFA881AA3009F444C09394EA
:10024200D89AA881C8DFD8983EC0BA93AA931A93C5
:10025200A981BA81ED91A983BA831E2FE03019F0EA
:10026200A12FDEDFF5CF188123960895AA93D39AA2
:10027200D49AD59AD69AD29AD09AD19ADA98D8980C
:10028200D998B880E881E058E0930405E881E05409
:10029200E0930505A4E1B0E00E94AF010E94A7012E
:1002A2000E94A7010E94A701A0E270DF88EC90E003
:1002B2000197F1F7A8E28FDFA4E08DDFA5E88BDFDD
:1002C200A6E089DFA1DF21960895BA93AA93A991A6
:1002D200B991E991F99130962AF4E095F095319629
:1002E2006DE26D93E89480E197E20DD088EE93E0A1
:1002F2000AD084E6992707D08AE005D06E2F10D065
:1003020066276C9308956627E817F90720F063952E
:10031200E81BF90BC9F7662311F416F008956894E7
:10032200605D6D9308950E940501E0E0EA93A0E00C
:100332000C94F8005A924A92D3010E946601F3CFBC
:100342000E94EC00A3E0B0E00C94AF01A0E30E9495
:10035200C70088EC90E00197F1F70895109639F004
:1003620080ED97E00197F1F7A8951197C9F70895E5
:00000001FF
