:020000000C945E
:100002004B000C9400000C9400000C9400000C9423
:1000120000000C9400000C9400000C9400000C945E
:1000220000000C9400000C9400000C9400000C944E
:1000320000000C9400000C9400000C9400000C943E
:100042007B000C9400000C9400000C9400000C94B3
:1000520000000C9400000C9400000C9400000C941E
:1000620000000C9400000C9400000C9400000C940E
:1000720000000C9400000C9400000C9400000C94FE
:1000820000000C9400000C94000000000200040028
:100092008C000000F894EE27ECBBF1E0F5BFE5BF61
:1000A200E0936C008DE0A2E0BB27ED938A95E9F71F
:1000B20080E090E1A0E0B1E0ED930197E9F7EEE88E
:1000C200F0E085919591009761F0A591B591059029
:1000D2001590BF01F00105900D920197E1F7FB0128
:1000E200F0CF8BBFEFEFEDBFE0E1EEBFC0E0D5E0B8
:1000F2000C94A4000A921A929A93AA93BA93EA933E
:10010200FA93EFB7EA93E2EBE2BFE1E0E51541F4DF
:10011200E9E1E41529F4959B02C0959801C0959AEE
:10012200E42DF0E03196DF01EAE1F0E00E94F30015
:100132004E2EE991EFBFF991E991B991A991999167
:10014200199009901895E0E0E0BFE7E0E3BFE2EB29
:10015200E2BFE0E0E1BFE1E0E7BFE0E0E0937D0085
:100162007894E0E0E1BBE2BBE7BBEFEFE8BBB2991A
:1001720006C0AAEFB0E00E94D2005524959AB39926
:1001820006C0AAEFB0E00E94D20055249598B0991B
:1001920006C0AAEFB0E00E94D200E1E05E2EE7CFF7
:1001A200FFCF109639F080ED97E00197F1F7A8950F
:1001B2001197C9F70895F195E195F040089500244B
:1001C200112490E1AA0FBB1F001C111C0E1A1F0A5A
:1001D20018F40E0E1F1E01C0A1609A9599F7FD0139
:1001E200D0010895E894B7FF04C0A095B095119688
:1001F2006894F7FDE0DFE3DFFD010EF4DCDF089534
:00000001FF
