:060000000C945D000C945D
:1000060000000C9400000C9400000C9400000C946A
:1000160000000C9400000C9400000C9400000C945A
:1000260000000C9400000C9400000C9400000C944A
:1000360000000C9400000C9400000C9400000C943A
:1000460000000C9400000C9400000C9400000C942A
:1000560000000C9400000C9400000C9400000C941A
:1000660000000C9400000C9400000C9400000C940A
:1000760000000C9400000C9400000C9400000C94FA
:1000860000000C94000000050C00000C68656C6C08
:100096006F2D776F726C645F5F5F5F5F000080C07B
:1000A600060004008C0011000005920002001105F4
:1000B600A4000000F894EE27ECBBF1E0F5BFE5BF25
:1000C600E0936C008DE0A2E0BB27ED938A95E9F7FB
:1000D60080E090E1A0E0B1E0ED930197E9F7E6EA70
:1000E600F0E085919591009761F0A591B591059005
:1000F6001590BF01F00105900D920197E1F7FB0104
:10010600F0CF8BBFEFEFEDBFE0E1EEBFC0E0D5E093
:100116000C948D00E0E0E7BBEFEFE8BB8F9A979A6F
:10012600A0E1BCD08BD0D201A8D0B29925C0E2D034
:10013600E1E1E91509F1E2D009F49394E5D009F477
:100146008394E8D03197E40DF51DE081EC93F3013B
:100156003197E40DF51DB082F30131973F01D4D0FC
:1001660009F48394E82DD301F0E0AE17BF0714F429
:10017600692C7724D8D0DCCFB39920C0BBD0992086
:10018600E9F0BCD009F49A94BFD009F48A94C2D09D
:100196003196E40DF51DE081EC93F3013196E40D03
:1001A600F51DB082F30131963F01A8D009F49A9467
:1001B600A5D014F4682C7724B6D0E1CFB6CFFFCF04
:1001C600AA93E881E07111F0DB9A01C0DB98E8811F
:1001D600E07211F0DC9A01C0DC98E881E07411F05D
:1001E600DD9A01C0DD98E881E07811F0DE9A01C061
:1001F600DE988DE08A95F1F7DA9A8DE08A95F1F727
:10020600DA988DE08A95F1F773C0AA93A881D8DFB2
:10021600E881E295E883A881D3DF85E88A95F1F73E
:1002260067C0AA93E881F0E0EF5EFA4FE081A9810A
:10023600AE0FEBDFA980D88022960895A2E07AD08F
:10024600ACE0E3DFA1E076D0E0E0DE2EAE2E08954E
:10025600AA93A881AA3011F0AC1448F0E0E0EA9322
:10026600D394AD2DDEDFA881AA3009F441C0A39452
:10027600D89AA881CADFD8983BC0BA93AA931A9392
:10028600A981BA81ED91A983BA831E2FE03019F0B6
:10029600A12FDEDFF5CF188123960895AA93D39A6E
:1002A600D49AD59AD69AD29AD09AD19ADA98D898D8
:1002B600D998C880E881E058E0931305E881E054B6
:1002C600E0931405A4E1B0E00E94A90138D037D02C
:1002D60036D0A0E275DF88EC90E00197F1F7A8E24E
:1002E60094DFA4E092DFA5E890DFA6E08EDFA6DF2C
:1002F60021960895AAEFB0E00C94A901E92DD30147
:10030600F0E0EA17FB070895E82DD301F0E0EA17BD
:10031600FB070895F301E40DF51DB080D301A40D8C
:10032600B51DF3010895E0E0EA93A0E07ADFD2017B
:10033600A4DFE0CF6ADFA3E0B0E00C94A901A0E35C
:100346003FDF88EC90E00197F1F70895109639F0B9
:1003560080ED97E00197F1F7A8951197C9F70895F1
:00000001FF
