:080000000C9459000C9400005F
:100008000C9400000C9400000C9400000C94000068
:100018000C9400000C9400000C9400000C94000058
:100028000C9400000C9400000C9400000C94000048
:100038000C9400000C9400000C9400000C94000038
:100048000C9400000C9400000C9400000C94000028
:100058000C9400000C9400000C9400000C94000018
:100068000C9400000C9400000C9400000C94000008
:100078000C9400000C9400000C9400000C940000F8
:100088000C9400000005000068656C6C6F5F776F6A
:10009800726C640080C0040004008C000C00000531
:1000A800900002000C059C000000F894EE27ECBBC1
:1000B800F1E0F5BFE5BFE0936C008DE0A2E0BB275F
:1000C800ED938A95E9F780E090E1A0E0B1E0ED9347
:1000D8000197E9F7EEE9F0E085919591009761F0D5
:1000E800A591B59105901590BF01F00105900D926D
:1000F8000197E1F7FB01F0CF8BBFEFEFEDBFE0E138
:10010800EEBFC0E0D5E00C948900E0E0E7BBEFEF7C
:10011800E8BB8F9A979AA0E193D062D0B2990DC0AC
:10012800BBD066247724E5E0F0E0E615F7052CF06F
:10013800B7D0F30131963F01F6CFB3990DC0ACD0DB
:10014800E5E0F0E03F010024601470042CF0A8D032
:10015800F30131973F01F7CFB09902C09DD040D04D
:10016800DDCFFFCFAA93E881E07111F0DB9A01C0DF
:10017800DB98E881E07211F0DC9A01C0DC98E88134
:10018800E07411F0DD9A01C0DD98E881E07811F0A3
:10019800DE9A01C0DE988DE08A95F1F7DA9A8DE053
:1001A8008A95F1F7DA988DE08A95F1F773C0AA93EA
:1001B800A881D8DFE881E295E883A881D3DF85E8C4
:1001C8008A95F1F767C0AA93E881F0E0E45FFA4FF7
:1001D800E081A981AE0FEBDF99808880229608958F
:1001E800A2E068D0ACE0E3DFA1E064D0E0E08E2ECE
:1001F8009E2E0895AA93A881AA3011F09B1448F066
:10020800E0E0EA938394A82DDEDFA881AA3009F400
:1002180041C09394D89AA881CADFD8983BC0BA93B2
:10022800AA931A93A981BA81ED91A983BA831E2F43
:10023800E03019F0A12FDEDFF5CF1881239608955D
:10024800AA93D39AD49AD59AD69AD29AD09AD19A6E
:10025800DA98D898D998B880E881E058E0930E05E4
:10026800E881E054E0930F05A4E1B0E00E946A0140
:1002780026D025D024D0A0E275DF88EC90E0019745
:10028800F1F7A8E294DFA4E092DFA5E890DFA6E00A
:100298008EDFA6DF21960895AAEFB0E00C946A01DC
:1002A8009FDF6A92A0E08FDFD201B9DFA4E6B0E059
:1002B8000C946A017CDFA3E0B0E00C946A01A0E32F
:1002C80051DF88EC90E00197F1F70895109639F026
:1002D80080ED97E00197F1F7A8951197C9F7089570
:00000001FF
