:0C0000000C9458000C9400000C940000BC
:10000C000C9400000C9400000C9400000C94000064
:10001C000C9400000C9400000C9400000C94000054
:10002C000C9400000C9400000C9400000C94000044
:10003C000C9400000C9400000C9400000C94000034
:10004C000C9400000C9400000C9400000C94000024
:10005C000C9400000C9400000C9400000C94000014
:10006C000C9400000C9400000C9400000C94000004
:10007C000C9400000C9400000C9400000C940000F4
:10008C00000001002D4E414E00494E46000080C03C
:10009C00020004008C0001000A058E0002000E050F
:1000AC009A000000F894EE27ECBBF1E0F5BFE5BF39
:1000BC00E0936C008DE0A2E0BB27ED938A95E9F705
:1000CC0080E090E1A0E0B1E0ED930197E9F7ECE975
:1000DC00F0E085919591009761F0A591B59105900F
:1000EC001590BF01F00105900D920197E1F7FB010E
:1000FC00F0CF8BBFEFEFEDBFE0E1EEBFC0E0D5E09E
:10010C000C948800A0E10E9447010E9415018F9A6F
:10011C00E0E0E7BBEFEFE8BB979A5A924A92A0E077
:10012C00B5E00E94A900E0E0EA93A0E00E9408017B
:10013C00A0E0B5E00E943601B29903C0F2013196FD
:10014C002F01EBCFFFCFBA93AA93A991B991E99163
:10015C00F99130962AF4E095F09531966DE26D9315
:10016C00E89480E197E20DD088EE93E00AD084E623
:10017C00992707D08AE005D06E2F10D066276C9394
:10018C0008956627E817F90720F06395E81BF90B2B
:10019C00C9F7662311F416F008956894605D6D93A9
:1001AC000895AA93E881E07111F0DB9A01C0DB9805
:1001BC00E881E07211F0DC9A01C0DC98E881E0740F
:1001CC0011F0DD9A01C0DD98E881E07811F0DE9A3B
:1001DC0001C0DE988DE08A95F1F7DA9A8DE08A9568
:1001EC00F1F7DA988DE08A95F1F778C0AA93A88197
:1001FC00D8DFE881E295E883A881D3DF85E88A958A
:10020C00F1F76CC0AA93E881F0E0E25FFA4FE0816D
:10021C00A981AE0FEBDF7980688022960895A2E069
:10022C000E947601ACE0E2DFA1E00E947601E0E002
:10023C006E2E7E2E0895AA93A881AA3011F07914FF
:10024C0048F0E0E0EA936394A62DDCDFA881AA30A5
:10025C0009F444C07394D89AA881C8DFD8983EC0DA
:10026C00BA93AA931A93A981BA81ED91A983BA83FF
:10027C001E2FE03019F0A12FDEDFF5CF1881239669
:10028C000895AA93D39AD49AD59AD69AD29AD09AF8
:10029C00D19ADA98D898D9989880E881E058E09368
:1002AC001005E881E054E0931105A4E1B0E00E9450
:1002BC0084010E947C010E947C010E947C01A0E2CE
:1002CC0070DF88EC90E00197F1F7A8E28FDFA4E0F3
:1002DC008DDFA5E88BDFA6E089DFA1DF21960895ED
:1002EC000E94FC00A3E0B0E00C948401A0E30E9407
:1002FC00D70088EC90E00197F1F70895109639F04B
:10030C0080ED97E00197F1F7A8951197C9F708953B
:00000001FF
