:080000000C9459000C9400005F
:100008000C9400000C9400000C9400000C94000068
:100018000C9400000C9400000C9400000C94000058
:100028000C9400000C9400000C9400000C94000048
:100038000C9400000C9400000C9489000C940000AF
:100048000C9400000C9400000C9400000C94000028
:100058000C9400000C9400000C9400000C94000018
:100068000C9400000C9400000C9400000C94000008
:100078000C9400000C9400000C9400000C940000F8
:100088000C9400000000960001002D4E414E0049DE
:100098004E46000080C0040004008C0001000E05DC
:1000A8009000020012059C000000F894EE27ECBBBB
:1000B800F1E0F5BFE5BFE0936C008DE0A2E0BB275F
:1000C800ED938A95E9F780E090E1A0E0B1E0ED9347
:1000D8000197E9F7EEE9F0E085919591009761F0D5
:1000E800A591B59105901590BF01F00105900D926D
:1000F8000197E1F7FB01F0CF8BBFEFEFEDBFE0E138
:10010800EEBFC0E0D5E00C94A400EA93FA93EFB7F1
:10011800EA93E0EBE2BFF20131962F01E0EDF7E060
:10012800E415F50511F4442455244614570414F431
:10013800AF9A01C0AF98E991EFBFF991E99118958D
:10014800E0E0E0BFE1E0E3BFE0EBE2BFE0E0E1BF19
:10015800E1E0E7BFE0E0E0937D007894A0E10E9451
:100168003A020E940802E0E0E7BBEFEFE8BBA79A7B
:100178008F9A979A0E94BE020E94FD04E3E0EA93D8
:10018800A4E0B5E00E94FD00E0E0EA93A0E00E9450
:10019800FB01A4E0B5E00E942902B29913C0A2E3D2
:1001A800B0E00E942E03F30131960E94C7020E941C
:1001B800DE030E94CE02E8ECF0E0E615F70511F444
:1001C8000E94D702B39913C0A2E3B0E00E942E03A5
:1001D800F30131970E94C7020E94D7030E94CE0202
:1001E800E4E6F0E0E615F70511F40E94D702C2CF65
:1001F800FFCFBA93AA932497E0E0E883E983EA83E0
:10020800EFE3EB831A930A93EB85FC85EF3FAFEF9F
:10021800FA0739F40E94E402A2E9B0E00E94B102B0
:10022800B1C0EF3FAFE7FA0739F40E94E402A3E94F
:10023800B0E00E94B102A6C0AC85AA2362F4E985A9
:10024800FA856B857C850E9438030E94E9020E942A
:10025800EE02EDE2EC93A885A73010F0E6E0E8871F
:100268001885E12F1150E03039F00E94F5020E9404
:10027800FA020E940103F5CF0E9406030E94DE03E2
:100288000E94E90210E0E0E0F0E060E87FE30E940D
:1002980001030E9406030E94C10488F00E94F5022F
:1002A8000E940F030E9401031F5F173238F00E945B
:1002B800E402A7E9B0E00E94B10264C0EACF1030BE
:1002C80029F40E94EE02E0E3EC932FC0E12F1150D5
:1002D800E03059F10E94F5020E94FA02A0E0B0E075
:1002E80080E09FE30E94DE03DF01CB010E949A02B7
:1002F8000E9401030E9406030E947C040E946B0373
:100308000E2F0E94EE02E02FE05DEC93E02FF0E06C
:100318000E94F5020E94E9040E94A4030E942E0490
:100328000E9416030E941B03D1CFE885E03031F10B
:100338000E94EE02EEE2EC93E885E150E887EF5F79
:10034800E9F00E9416030E940F030E94E902E98562
:10035800FA856B857C850E946B030E2F0E94EE0246
:10036800E02FE05DEC93E02FF0E00E9416030E947E
:10037800E9040E94A4030E941B03DECFAE81BF8163
:10038800E0E0EC93198108812D960895AA93E881FD
:10039800E07111F0DB9A01C0DB98E881E07211F09E
:1003A800DC9A01C0DC98E881E07411F0DD9A01C0A4
:1003B800DD98E881E07811F0DE9A01C0DE988DE0E2
:1003C8008A95F1F7DA9A8DE08A95F1F7DA988DE057
:1003D8008A95F1F778C0AA93A881D8DFE881E295D9
:1003E800E883A881D3DF85E88A95F1F76CC0AA93E2
:1003F800E881F0E0EE5EFA4FE081A981AE0FEBDF15
:100408009980888022960895A2E00E942003ACE09B
:10041800E2DFA1E00E942003E0E08E2E9E2E0895E8
:10042800AA93A881AA3011F09B1448F0E0E0EA935F
:100438008394A82DDCDFA881AA3009F444C09394E2
:10044800D89AA881C8DFD8983EC0BA93AA931A93BD
:10045800A981BA81ED91A983BA831E2FE03019F0E2
:10046800A12FDEDFF5CF188123960895AA93D39A9A
:10047800D49AD59AD69AD29AD09AD19ADA98D89804
:10048800D998B880E881E058E0931405E881E054F1
:10049800E0931505A4E1B0E00E942E030E94260314
:1004A8000E9426030E942603A0E270DF88EC90E0F9
:1004B8000197F1F7A8E28FDFA4E08DDFA5E88BDFD5
:1004C800A6E089DFA1DF219608950E9402057B81BD
:1004D8006A81F981E88177FB770F67FD7160972F53
:1004E8009E5781F078F0983190F4AA27BB27882787
:1004F80008948795B795A7959A95D1F7EA23FB2392
:10050800682305C0E8947727EE27FF2766276F77CB
:10051800769508F4606877F9A991B99189919991CC
:10052800EA17FB076807790797FB08950E940205F9
:100538000E94F3040E9469020E94F80419F40E94C0
:10054800EE0409C0E6F70E94EE04A0E0B0E080E8FF
:100558009FE30E94D70324960895BA93AA93E9913A
:10056800F991A991B991CD0105900D920020E1F77B
:10057800FC010895E0910005F091010560910205E4
:100588007091030508953F01F5DFA6E6B6E686EE0D
:100598009FE30895E0930005F09301056093020539
:1005A800709303050895E6E9F0E03F01E0E0E09389
:1005B8000005E0930105E0930205E0930305089523
:1005C800EE81FF81FA93EA930895E987FA876B87AA
:1005D8007C870895AE81BF811196AE83BF83119742
:1005E8000895AA81BB818C819D810895EDECFCEC76
:1005F8006CEC7DE30E942E040895EA83FB836C83F0
:100608007D830895EA81FB816C817D81A985BA8506
:100618008B859C850895E0E0F0E060E271E40E943B
:100628002E040895A985BA858B859C8508950E9416
:1006380007050E94D703C9CF0E94EF01A3E0B0E0ED
:100648000C942E03A0E30E94CA0188EC90E0019765
:10065800F1F70895109639F080ED97E00197F1F7DA
:10066800A8951197C9F7089530976040704009F030
:1006780070580895552342F4503811F4E0FF04C02F
:100688003196691F791F6BF050E8572711F45F9373
:10069800CFC05F3F31F0660F000C57956795752FF7
:1006A80008955F9300200AF0CFC0C8C050E8192E03
:1006B8001522880F991F9527550F879550E8072E03
:1006C8000522660F771F7527550F6795089568945B
:1006D80001C0E8945F93F2DF703818F07F3F08F4A8
:1006E800A7C056E1571BAAF4519558300EF459305B
:1006F80030F0EFEFFFEF6FEF7FE777F91AC077275A
:100708005523B9F0EE0FFF1F661F771F5A95D1F7D3
:1007180010C07727583028F0EF2FF62F672F585042
:10072800F9CF552331F076956795F795E7955A9562
:10073800D1F700200AF441D15F910895689401C06F
:10074800E894309760407040B1F0002426F0772399
:1007580012F4009432D1172E7EE1112032F07A95EE
:10076800EE0FFF1F661F111CF9CFEF2FF62F612D1B
:100778005F938ADF5F9108954F93AF01FD01DA011E
:10078800AB01BC01CA01402D012C142E4F910895D4
:10079800EA0FFB1F681F0895E095F0956095EF5FDD
:1007A800FF4F6F4F08955F9381DF903871F150E8E4
:1007B800152604C05F937ADF903839F1703821F13B
:1007C800572F591B2BF112F4D7DFFACF583118F0F5
:1007D800AA27BB278827583028F0AB2FB82F88279F
:1007E8005850F9CF552329F08695B795A7955A956E
:1007F800D9F7502D512572F0CBDF38F46795F7956E
:10080800E795739513F420C0B7DF3EDF5F91089535
:10081800D8F7FBCFEA1BFB0B680B51F010F40094E0
:10082800BBDF662392F3EE0FFF1F661F7A95CBF7A7
:10083800EE27FF27662777275F910895EFEFFFEFF1
:100848006FE77FEF5F910895EFEFFFEF6FE77FE7C7
:100858005F9108955F932ADF703851F3903841F320
:1008680001240894791F23F41CF300203AF3ECCFF9
:100878000F921F932F933F934F9311272227992766
:10088800689FA0018F9F302D410D591F6B9F300D20
:10089800411D591F8E9F27D0BF9F25D06A9F23D007
:1008A800BE9F1DD0AF9F1BD0AE9F110D291F391FB2
:1008B800491F591FE32FF42F652F522F4F913F9156
:1008C8002F911F910F9066232AF0550FEE1FFF1FDF
:1008D800661F02C073954BF2CDDE5F910895100D2F
:1008E800211D391F02C0200D311D491F591F0895B0
:1008F8005F93DCDE703821F411200AF49FCFA4CF77
:10090800903809F495CF01240894970B1BF4D4F37D
:100918000020F3CF792F1F932F933F934F931124E8
:100928001127222733274427552790E2AE17BF0700
:100938008607410730F0AE1BBF0B860B410B0894AE
:1009480001C08894551F221F331F111CAA1FBB1FEB
:10095800881F441F9A9551F7F901612D4F913F91D6
:100968002F911F91662332F0550FEE1FFF1F661F50
:100978007A9543F27FDE5F91089599239AF0772361
:1009880042F0971748F029F4AE17BF07860720F002
:1009980031F0989488940895989408940895189438
:1009A800889408957723C2F7971798F3A9F7EA1759
:1009B800FB07680788F399F3ECCFF095609570957D
:1009C800E195FF4F6F4F7F4F08956F2F660F660BAE
:1009D800762F0895E881F9816A817B810895A8813D
:1009E800B9818A819B810895E883F9836A837B832F
:1009F80008957A936A93FA93EA9308959A938A9357
:100A0800BA93AA930895182E862F612D192E972F21
:100A1800712D1B2EBF2FF12D1A2EAE2FE12D08950B
:00000001FF
