:0E0000000C946C000C9400000C9400000C9406
:10000E0000000C9400000C9400000C9400000C9462
:10001E0000000C9400000C9400000C9400000C9452
:10002E0000000C9400000C9400000C9400000C9442
:10003E0000000C9400000C9400000C9400000C9432
:10004E0000000C9400000C9400000C9400000C9422
:10005E0000000C9400000C9400000C9400000C9412
:10006E0000000C9400000C9400000C9400000C9402
:10007E0000000C9400000C9400000C94000010275B
:10008E00E80364000A0001000010000110000100E6
:10009E0048656C6C6F202E2E00446F20616D2025FC
:1000AE0075004E6869657420646F20257500010027
:1000BE002D4E414E00494E46000080C001001005F5
:1000CE00BC0002001405C8000000F894EE27ECBB3B
:1000DE00F1E0F5BFE5BFE0936C008DE0A2E0BB2739
:1000EE00ED938A95E9F780E090E1A0E0B1E0ED9321
:1000FE000197E9F7EAECF0E085919591009761F0B0
:10010E00A591B59105901590BF01F00105900D9246
:10011E000197E1F7FB01F0CF8BBFEFEFEDBFE0E111
:10012E00EEBFC0E0D5E00C940301BA93AA932597D5
:10013E00E0E0E883E983EA83EB83EC831A930A9386
:10014E00BF9AC79A8BE68A95F1F7C798AEE1B0E0F1
:10015E000E94FA03C79ABF988BE68A95F1F7B79B70
:10016E0002C0E0E045C0B79BFECF80E58A95F1F76F
:10017E00B79902C0E0E03CC0B799FECF7724E5E026
:10018E007E1600F510E01830D8F4B79BFECF80E550
:10019E008A95F1F7B79B12C0E72DF0E0DE011296BB
:1001AE00EA0FFB1FBF011080E7E0E11BA1E00E94F8
:1001BE000C04E129DB01EC93B799FECF1F5FE3CF6F
:1001CE007394DDCFEB81AA81EA0FAC81EA0FAD818A
:1001DE00EA0F0E2FEE81E01711F0E0E009C0EC817E
:1001EE00A985BA85EC93EA81AF81B885EC93E1E0FD
:1001FE00198108812B960895A0E10E9464030E9444
:10020E00AC03AEE9B0E00E945103E0E8E1BBE2BB13
:10021E00E5E0F0E0FA93EA93A4E0B0E086DFE030A8
:10022E0009F10E94AC03E0E0F5E0FA93EA93E7EA05
:10023E00F0E0FA93EA93E42D0E94B303E0E0EA9330
:10024E00A1E00E941403E0E0F5E0FA93EA93E0EBFC
:10025E00F0E0FA93EA93E52D0E94B303ACE2B1E02D
:10026E000E94FA03D5CFFFCFBA93AA931A930A939B
:10027E00AA81BB8112960E941404309759F1AA816B
:10028E00BB8114960E9414048F01309761F00230E6
:10029E00E0E01E0798F0F80131978F01AA81BB812B
:1002AE001496ED93FC93AA81BB811296ED91FD916C
:1002BE003196FE93EE933197AC81A083AA81BB81D8
:1002CE000E941404FF232AF0ED91FD913196FE93C6
:1002DE00EE9306C0AA81BB81EFEFFFEFED93FC9387
:1002EE001981088125960895BA93AA9326970E949C
:1002FE00210410E0AC85BD85E0E0F0E0ED93FC93C9
:10030E00EA89FB893196EA8BFB8B3197E4912E2F8C
:10031E00E03009F415C1E12FE03039F4253211F443
:10032E0011E002C00E94C0030AC1E130A9F42532D7
:10033E0019F40E94C00302C112E040E000E02D3229
:10034E0011F401E0FCC02B3211F44BE2F8C0203264
:10035E0011F440E2F4C002C0E23039F450E013E090
:10036E00203311F40068EBC003C0E33009F0E7C09E
:10037E00203310F02A3308F007C0AAE05A9F502D00
:10038E00E22FE0535E0FDBC0E22FE33649F40E940A
:10039E00C703E889F989A481AA930E94CD03CEC030
:1003AE00E33741F40E94C7030E94D3030E949303D4
:1003BE001E2F0AC0E03761F40E94C7030E94D303C8
:1003CE000E949F031E2F086002600F7730E034C03A
:1003DE00E43611F0E93611F4046002C0E53731F469
:1003EE00ECE8F0E0EE83FF8315E00CC0E83511F485
:1003FE00086003C0E83709F0A1C0E6E9F0E0EE833B
:10040E00FF8314E002FF14C00E94C7030E94DD03A5
:10041E00AB85AA233AF4EA85FB850E940804EA8795
:10042E00FB874DE2403011F01F5F01C00B7F04C00F
:10043E000E94C7030E94DD0300FD11C0151778F45A
:10044E0007FF08C002FF04C00B7F242F115001C00C
:10045E0020E301C020E20E94C0035150EFCF312FA4
:10046E0001FF17C03030A1F003FF06C0EE81FF81FF
:10047E002591EE83FF8305C0AE81BF812D91AE83A2
:10048E00BF830E94C003503009F051503150EACF63
:10049E004BC020E3EE81FF810E941804E887F987A4
:1004AE00EE81FF813296EE83FF83E885F985AA857A
:1004BE00BB85AE17BF0750F02F5FA885B985EA85BB
:1004CE00FB85EA1BFB0BEA87FB87EFCF2A3328F06D
:1004DE0003FF02C0295F01C0295D04FD1AC021334C
:1004EE0020F4A885B985119709F409C0531710F0A7
:1004FE0000FF01C013C020E207FF0BC020E3006124
:10050E0002FF07C00B7F4A930E94CD03503009F0C3
:10051E0051500E94C003503009F051503150A885FF
:10052E00B985129708F0B5CF00FF08C0503031F0F2
:10053E005150E0E2EA930E94CD03F8CF10E0E0CEF6
:10054E00AC85BD850E9414040E942804649608950B
:10055E00FF92F82E26970E9423040E94E5033097FF
:10056E0019F4EFEFFFEF23C0DE0116960E9404048C
:10057E008D010E94E503EE83FF83E0E0E887E987C3
:10058E00DE011A960E9404040E941404FA93EA9360
:10059E001A930A93EBE3F1E0FA93EA93DE011A96CB
:1005AE00A3DE9F01AE81BF81E0E0EC93F9010E94D2
:1005BE002A042A96FF900895AA93E881E07111F01B
:1005CE00DB9A01C0DB98E881E07211F0DC9A01C081
:1005DE00DC98E881E07411F0DD9A01C0DD98E881C5
:1005EE00E07811F0DE9A01C0DE988DE08A95F1F781
:1005FE00DA9A8DE08A95F1F7DA988DE08A95F1F71F
:10060E0089C0AA93A881D8DFE881E295E883A88102
:10061E00D3DF85E88A95F1F77DC0AA93E881F0E0F3
:10062E00EC5EFA4FE081A981AE0FEBDF6980988016
:10063E0022960895A2E00E94EC03ACE0E2DFA1E076
:10064E000E94EC03E0E09E2E6E2E0895AA93A881E0
:10065E00AA3011F0681448F0E0E0EA939394A92DC3
:10066E00DCDFA881AA3009F455C06394D89AA8811A
:10067E00C8DFD8984FC0BA93AA931A93A981BA81AA
:10068E00ED91A983BA831E2FE03019F0A12FDEDF82
:10069E00F5CF10C0BA93AA931A93E981FA813196D5
:1006AE00E983FA833197E4911E2FE03019F0A12FE0
:1006BE00CDDFF3CF188123960895AA93D39AD49AB7
:1006CE00D59AD69AD29AD09AD19ADA98D898D998A9
:1006DE008880E881E058E0931605E881E054E093C5
:1006EE001705A4E1B0E00E94FA030E94F2030E94F3
:1006FE00F2030E94F203A0E25FDF88EC90E0019724
:10070E00F1F7A8E27EDFA4E07CDFA5E87ADFA6E0C1
:10071E0078DF90DF21960895BA93AA93A991B991A3
:10072E00EE27FF276D91662311F03196FBCF0895CA
:10073E00BA93AA93AA27BB27E991F99105900020B5
:10074E0011F01196FBCFFD0108950E942103E0E008
:10075E00EA93A0E00C941403FF27662777270E94E4
:10076E001C0484E00E94AF022896A0E0B5E00C9431
:10077E0042032A93AD85BE85EF85F88909950895C4
:10078E00E889F9893497E88BF98B0895AD85BE8594
:10079E00EF85F88909950895A889B98914960E945C
:1007AE001404EE83FF83AE81BF810895A889B989B1
:1007BE0014960E941404EA87FB870895DE011C96A6
:1007CE000E9404040E94140408950E940803A3E0EA
:1007DE00B0E00C94FA03A0E30E94E30288EC90E0F0
:1007EE000197F1F70895109639F080ED97E0019793
:1007FE00F1F7A8951197C9F708950024AF0DB01D14
:10080E000895F195E195F0400895EE230E2EEA2F0E
:10081E0019F0EE0F0A94E9F70895ED91FC911197F6
:10082E0008950590F491E02D08957A936A93FA93C2
:10083E00EA9308955A934A933A932A931A930A93F2
:10084E0008955D814C813B812A811981088108952B
:00000001FF
